{
	"data": {
		"bytecode": {
			"linkReferences": {},
			"object": "608060405234801561001057600080fd5b50610394806100206000396000f3fe608060405234801561001057600080fd5b50600436106100415760003560e01c80630c94904314610046578063ccbac9f514610061578063e78a78cd1461006a575b600080fd5b61004e61008a565b6040519081526020015b60405180910390f35b61004e60005481565b61007d61007836600461020e565b6100b2565b6040516100589190610227565b60006100946101f0565b438152604051602081818460ff600019fa6100ab57fe5b5192915050565b6060600382106101145760405162461bcd60e51b815260206004820152602360248201527f416c6368656d793a205061636b2073697a65206973206e6f7420737570706f726044820152621d195960ea1b606482015260840160405180910390fd5b600061011e61008a565b9050600061012d846005610297565b61013890600561026b565b905060008167ffffffffffffffff81111561015557610155610348565b60405190808252806020026020018201604052801561017e578160200160208202803683370190505b50905060005b828110156101e75760006101996064866102f2565b90506101a6606486610283565b94506101b36006826102d1565b61ffff168383815181106101c9576101c9610332565b602090810291909101015250806101df816102b6565b915050610184565b50949350505050565b60405180602001604052806001906020820280368337509192915050565b60006020828403121561022057600080fd5b5035919050565b6020808252825182820181905260009190848201906040850190845b8181101561025f57835183529284019291840191600101610243565b50909695505050505050565b6000821982111561027e5761027e610306565b500190565b6000826102925761029261031c565b500490565b60008160001904831182151516156102b1576102b1610306565b500290565b60006000198214156102ca576102ca610306565b5060010190565b600061ffff808416806102e6576102e661031c565b92169190910692915050565b6000826103015761030161031c565b500690565b634e487b7160e01b600052601160045260246000fd5b634e487b7160e01b600052601260045260246000fd5b634e487b7160e01b600052603260045260246000fd5b634e487b7160e01b600052604160045260246000fdfea2646970667358221220bbd278cb3eab01fd36ddf510dc882cc56e3aa7cb1eb4d671c67e403ea04c2da164736f6c63430008070033",
			"opcodes": "PUSH1 0x80 PUSH1 0x40 MSTORE CALLVALUE DUP1 ISZERO PUSH2 0x10 JUMPI PUSH1 0x0 DUP1 REVERT JUMPDEST POP PUSH2 0x394 DUP1 PUSH2 0x20 PUSH1 0x0 CODECOPY PUSH1 0x0 RETURN INVALID PUSH1 0x80 PUSH1 0x40 MSTORE CALLVALUE DUP1 ISZERO PUSH2 0x10 JUMPI PUSH1 0x0 DUP1 REVERT JUMPDEST POP PUSH1 0x4 CALLDATASIZE LT PUSH2 0x41 JUMPI PUSH1 0x0 CALLDATALOAD PUSH1 0xE0 SHR DUP1 PUSH4 0xC949043 EQ PUSH2 0x46 JUMPI DUP1 PUSH4 0xCCBAC9F5 EQ PUSH2 0x61 JUMPI DUP1 PUSH4 0xE78A78CD EQ PUSH2 0x6A JUMPI JUMPDEST PUSH1 0x0 DUP1 REVERT JUMPDEST PUSH2 0x4E PUSH2 0x8A JUMP JUMPDEST PUSH1 0x40 MLOAD SWAP1 DUP2 MSTORE PUSH1 0x20 ADD JUMPDEST PUSH1 0x40 MLOAD DUP1 SWAP2 SUB SWAP1 RETURN JUMPDEST PUSH2 0x4E PUSH1 0x0 SLOAD DUP2 JUMP JUMPDEST PUSH2 0x7D PUSH2 0x78 CALLDATASIZE PUSH1 0x4 PUSH2 0x20E JUMP JUMPDEST PUSH2 0xB2 JUMP JUMPDEST PUSH1 0x40 MLOAD PUSH2 0x58 SWAP2 SWAP1 PUSH2 0x227 JUMP JUMPDEST PUSH1 0x0 PUSH2 0x94 PUSH2 0x1F0 JUMP JUMPDEST NUMBER DUP2 MSTORE PUSH1 0x40 MLOAD PUSH1 0x20 DUP2 DUP2 DUP5 PUSH1 0xFF PUSH1 0x0 NOT STATICCALL PUSH2 0xAB JUMPI INVALID JUMPDEST MLOAD SWAP3 SWAP2 POP POP JUMP JUMPDEST PUSH1 0x60 PUSH1 0x3 DUP3 LT PUSH2 0x114 JUMPI PUSH1 0x40 MLOAD PUSH3 0x461BCD PUSH1 0xE5 SHL DUP2 MSTORE PUSH1 0x20 PUSH1 0x4 DUP3 ADD MSTORE PUSH1 0x23 PUSH1 0x24 DUP3 ADD MSTORE PUSH32 0x416C6368656D793A205061636B2073697A65206973206E6F7420737570706F72 PUSH1 0x44 DUP3 ADD MSTORE PUSH3 0x1D1959 PUSH1 0xEA SHL PUSH1 0x64 DUP3 ADD MSTORE PUSH1 0x84 ADD PUSH1 0x40 MLOAD DUP1 SWAP2 SUB SWAP1 REVERT JUMPDEST PUSH1 0x0 PUSH2 0x11E PUSH2 0x8A JUMP JUMPDEST SWAP1 POP PUSH1 0x0 PUSH2 0x12D DUP5 PUSH1 0x5 PUSH2 0x297 JUMP JUMPDEST PUSH2 0x138 SWAP1 PUSH1 0x5 PUSH2 0x26B JUMP JUMPDEST SWAP1 POP PUSH1 0x0 DUP2 PUSH8 0xFFFFFFFFFFFFFFFF DUP2 GT ISZERO PUSH2 0x155 JUMPI PUSH2 0x155 PUSH2 0x348 JUMP JUMPDEST PUSH1 0x40 MLOAD SWAP1 DUP1 DUP3 MSTORE DUP1 PUSH1 0x20 MUL PUSH1 0x20 ADD DUP3 ADD PUSH1 0x40 MSTORE DUP1 ISZERO PUSH2 0x17E JUMPI DUP2 PUSH1 0x20 ADD PUSH1 0x20 DUP3 MUL DUP1 CALLDATASIZE DUP4 CALLDATACOPY ADD SWAP1 POP JUMPDEST POP SWAP1 POP PUSH1 0x0 JUMPDEST DUP3 DUP2 LT ISZERO PUSH2 0x1E7 JUMPI PUSH1 0x0 PUSH2 0x199 PUSH1 0x64 DUP7 PUSH2 0x2F2 JUMP JUMPDEST SWAP1 POP PUSH2 0x1A6 PUSH1 0x64 DUP7 PUSH2 0x283 JUMP JUMPDEST SWAP5 POP PUSH2 0x1B3 PUSH1 0x6 DUP3 PUSH2 0x2D1 JUMP JUMPDEST PUSH2 0xFFFF AND DUP4 DUP4 DUP2 MLOAD DUP2 LT PUSH2 0x1C9 JUMPI PUSH2 0x1C9 PUSH2 0x332 JUMP JUMPDEST PUSH1 0x20 SWAP1 DUP2 MUL SWAP2 SWAP1 SWAP2 ADD ADD MSTORE POP DUP1 PUSH2 0x1DF DUP2 PUSH2 0x2B6 JUMP JUMPDEST SWAP2 POP POP PUSH2 0x184 JUMP JUMPDEST POP SWAP5 SWAP4 POP POP POP POP JUMP JUMPDEST PUSH1 0x40 MLOAD DUP1 PUSH1 0x20 ADD PUSH1 0x40 MSTORE DUP1 PUSH1 0x1 SWAP1 PUSH1 0x20 DUP3 MUL DUP1 CALLDATASIZE DUP4 CALLDATACOPY POP SWAP2 SWAP3 SWAP2 POP POP JUMP JUMPDEST PUSH1 0x0 PUSH1 0x20 DUP3 DUP5 SUB SLT ISZERO PUSH2 0x220 JUMPI PUSH1 0x0 DUP1 REVERT JUMPDEST POP CALLDATALOAD SWAP2 SWAP1 POP JUMP JUMPDEST PUSH1 0x20 DUP1 DUP3 MSTORE DUP3 MLOAD DUP3 DUP3 ADD DUP2 SWAP1 MSTORE PUSH1 0x0 SWAP2 SWAP1 DUP5 DUP3 ADD SWAP1 PUSH1 0x40 DUP6 ADD SWAP1 DUP5 JUMPDEST DUP2 DUP2 LT ISZERO PUSH2 0x25F JUMPI DUP4 MLOAD DUP4 MSTORE SWAP3 DUP5 ADD SWAP3 SWAP2 DUP5 ADD SWAP2 PUSH1 0x1 ADD PUSH2 0x243 JUMP JUMPDEST POP SWAP1 SWAP7 SWAP6 POP POP POP POP POP POP JUMP JUMPDEST PUSH1 0x0 DUP3 NOT DUP3 GT ISZERO PUSH2 0x27E JUMPI PUSH2 0x27E PUSH2 0x306 JUMP JUMPDEST POP ADD SWAP1 JUMP JUMPDEST PUSH1 0x0 DUP3 PUSH2 0x292 JUMPI PUSH2 0x292 PUSH2 0x31C JUMP JUMPDEST POP DIV SWAP1 JUMP JUMPDEST PUSH1 0x0 DUP2 PUSH1 0x0 NOT DIV DUP4 GT DUP3 ISZERO ISZERO AND ISZERO PUSH2 0x2B1 JUMPI PUSH2 0x2B1 PUSH2 0x306 JUMP JUMPDEST POP MUL SWAP1 JUMP JUMPDEST PUSH1 0x0 PUSH1 0x0 NOT DUP3 EQ ISZERO PUSH2 0x2CA JUMPI PUSH2 0x2CA PUSH2 0x306 JUMP JUMPDEST POP PUSH1 0x1 ADD SWAP1 JUMP JUMPDEST PUSH1 0x0 PUSH2 0xFFFF DUP1 DUP5 AND DUP1 PUSH2 0x2E6 JUMPI PUSH2 0x2E6 PUSH2 0x31C JUMP JUMPDEST SWAP3 AND SWAP2 SWAP1 SWAP2 MOD SWAP3 SWAP2 POP POP JUMP JUMPDEST PUSH1 0x0 DUP3 PUSH2 0x301 JUMPI PUSH2 0x301 PUSH2 0x31C JUMP JUMPDEST POP MOD SWAP1 JUMP JUMPDEST PUSH4 0x4E487B71 PUSH1 0xE0 SHL PUSH1 0x0 MSTORE PUSH1 0x11 PUSH1 0x4 MSTORE PUSH1 0x24 PUSH1 0x0 REVERT JUMPDEST PUSH4 0x4E487B71 PUSH1 0xE0 SHL PUSH1 0x0 MSTORE PUSH1 0x12 PUSH1 0x4 MSTORE PUSH1 0x24 PUSH1 0x0 REVERT JUMPDEST PUSH4 0x4E487B71 PUSH1 0xE0 SHL PUSH1 0x0 MSTORE PUSH1 0x32 PUSH1 0x4 MSTORE PUSH1 0x24 PUSH1 0x0 REVERT JUMPDEST PUSH4 0x4E487B71 PUSH1 0xE0 SHL PUSH1 0x0 MSTORE PUSH1 0x41 PUSH1 0x4 MSTORE PUSH1 0x24 PUSH1 0x0 REVERT INVALID LOG2 PUSH5 0x6970667358 0x22 SLT KECCAK256 0xBB 0xD2 PUSH25 0xCB3EAB01FD36DDF510DC882CC56E3AA7CB1EB4D671C67E403E LOG0 0x4C 0x2D LOG1 PUSH5 0x736F6C6343 STOP ADDMOD SMOD STOP CALLER "
		},
		"gasEstimates": {
			"creation": {
				"codeDepositCost": "183200",
				"executionCost": "226",
				"totalCost": "183426"
			},
			"external": {
				"InitiatePackSale(uint256)": "infinite",
				"randomNumber()": "2284",
				"vrf()": "infinite"
			}
		},
		"methodIdentifiers": {
			"InitiatePackSale(uint256)": "e78a78cd",
			"randomNumber()": "ccbac9f5",
			"vrf()": "0c949043"
		}
	},
	"abi": [
		{
			"inputs": [
				{
					"internalType": "uint256",
					"name": "packSize",
					"type": "uint256"
				}
			],
			"name": "InitiatePackSale",
			"outputs": [
				{
					"internalType": "uint256[]",
					"name": "",
					"type": "uint256[]"
				}
			],
			"stateMutability": "view",
			"type": "function"
		},
		{
			"inputs": [],
			"name": "randomNumber",
			"outputs": [
				{
					"internalType": "uint256",
					"name": "",
					"type": "uint256"
				}
			],
			"stateMutability": "view",
			"type": "function"
		},
		{
			"inputs": [],
			"name": "vrf",
			"outputs": [
				{
					"internalType": "uint256",
					"name": "result",
					"type": "uint256"
				}
			],
			"stateMutability": "view",
			"type": "function"
		}
	]
}